:020000040800F2
:10000000087E002049030008A1620008BB550008D3
:100010009D620008E1060008557D00080000000010
:100020000000000000000000000000008D02000839
:10003000AB0E000800000000E10200083173000868
:1000400063030008630300086303000863030008F8
:1000500063030008630300086303000863030008E8
:1000600063030008630300086303000863030008D8
:1000700049090008630300085909000863030008E0
:10008000690900087909000863030008F5060008FB
:10009000E506000863030008630300086303000823
:1000A0006303000863030008630300086303000898
:1000B0006303000863030008630300086303000888
:1000C0006303000863030008630300086303000878
:1000D00063030008057D0008197D00082D7D0008D8
:1000E0006303000863030008630300086303000858
:1000F0006303000863030008630300086303000848
:100100006303000801640008630300086303000838
:100110006303000863030008A57400086303000874
:10012000630300088909000899090008A909000863
:100130006303000863030008630300081507000851
:100140000507000863030008630300086303000851
:1001500063030008B9090008C9090008417D0008C7
:1001600063030008630300086303000863030008D7
:100170006303000863030008630300080000000035
:1001800063030008630300086303000863030008B7
:1001900063030008630300086303000863030008A7
:1001A00000000000000000006303000800F002F8F7
:1001B00000F05CF80AA090E8000C82448344AAF1A5
:1001C0000107DA4501D100F051F8AFF2090EBAE8A3
:1001D0000F0013F0010F18BFFB1A43F0010318477B
:1001E00000220100202201000A444FF0000C10F808
:1001F000013B13F0070408BF10F8014B1D1108BFA5
:1002000010F8015B641E05D010F8016B641E01F844
:10021000016BF9D113F0080F1EBF10F8014BAD1C94
:100220000C1B09D16D1E58BF01F801CBFAD505E0B2
:1002300014F8016B01F8016B6D1EF9D59142D6D30C
:10024000704700000023002400250026103A28BF34
:1002500078C1FBD8520728BF30C148BF0B60704738
:100260001FB511F064FD1FBD10B510BD00F06BF996
:100270001146FFF7F5FF0CF02BFC00F089F903B4F1
:10028000FFF7F2FF03BC00F08DF900002B4B19685B
:100290000868B0E8F04F80F30988BFF36F8F4FF024
:1002A000000080F3118870470000000006480068D5
:1002B000006880F3088862B661B6BFF34F8FBFF362
:1002C0006F8F00DF00BF00BF08ED00E0DFF80C001B
:1002D000016841F470010160704700BF88ED00E0E3
:1002E000EFF30980BFF36F8F144B1A681EF0100FE5
:1002F00008BF20ED108A20E9F04F106008B44FF0DD
:10030000500080F31188BFF34F8FBFF36F8F0FF052
:1003100071FD4FF0000080F3118808BC196808686F
:10032000B0E8F04F1EF0100F08BFB0EC108A80F359
:100330000988BFF36F8F704700BF00BF2400002003
:10034000EFF30580704700000948804709480047DF
:10035000FEE7FEE7FEE7FEE7FEE7FEE7FEE7FEE775
:10036000FEE7FEE704480549054A064B70470000D2
:1003700041740008AD01000808690020087E0020D3
:10038000086E0020086E0020032A40F2308010F032
:10039000030C00F0158011F8013BBCF1020F624420
:1003A00098BF11F801CB00F8013B38BF11F8013BB1
:1003B000A2F1040298BF00F801CB38BF00F8013B5E
:1003C00011F0030300F02580083AC0F0088051F8CE
:1003D000043B083A51F804CBA0E80810F5E7121DD9
:1003E0005CBF51F8043B40F8043BAFF30080D207F8
:1003F00024BF11F8013B11F801CB48BF11F8012BC4
:1004000024BF00F8013B00F801CB48BF00F8012BE6
:10041000704710B5203AC0F00B80B1E81850203A70
:10042000A0E81850B1E81850A0E81850BFF4F5AF94
:100430005FEA027C24BFB1E81850A0E8185044BF1E
:1004400018C918C0BDE810405FEA827C24BF51F88B
:10045000043B40F8043B08BF7047D20728BF31F87F
:10046000023B48BF11F8012B28BF20F8023B48BFD0
:1004700000F8012B704702F0FF0343EA032242EA2F
:10048000024200F002B84FF000020429C0F01280CE
:1004900010F0030C00F01B80CCF1040CBCF1020F37
:1004A00018BF00F8012BA8BF20F8022BA1EB0C010C
:1004B00000F00DB85FEAC17C24BF00F8012B00F802
:1004C000012B48BF00F8012B70474FF0000200B528
:1004D000134694469646203922BFA0E80C50A0E867
:1004E0000C50B1F12001BFF4F7AF090728BFA0E815
:1004F0000C5048BF0CC05DF804EB890028BF40F8E1
:10050000042B08BF704748BF20F8022B11F0804F22
:1005100018BF00F8012B704770477047704710B53F
:1005200000F00CF8006810BD10B5044600F006F8A5
:10053000046010BD00487047A8680020004870475C
:10054000A868002070477546FFF7F4FFAE46050027
:100550006946534620F00700854618B020B5FFF7DE
:1005600001FFBDE820404FF000064FF000074FF0BC
:1005700000084FF0000B21F00701AC46ACE8C009C1
:10058000ACE8C009ACE8C009ACE8C0098D467047CA
:1005900010B50446AFF300802046BDE81040FFF7D9
:1005A0006EBE000001491820ABBEFEE72600020027
:1005B0002DE9F04186B004460D46154800F040FE96
:1005C0008046134E01F0B4FF0020019002200590F8
:1005D000CDF80C800120049000BF0E4901A801F065
:1005E000F9FE0028F9D108E027783A460023314681
:1005F000184601F051FF761C641C281EA5F1010568
:10060000F2D101F03FFF002006B0BDE8F08100000C
:1006100000001E08C000002010B504462146024814
:1006200003F001FB10BD0000D045002010B50448C8
:1006300003F00CFB042801D0012010BD0020FCE7D2
:10064000D045002010B5002400F014F8012801D096
:10065000012010BD064803F00DFC044634B94FF4E8
:100660000061034803F092F900B101242046F0E74D
:10067000D045002008B5012000909DF8000008BD7D
:100680002DE9F84304460D4616461F464FF0000874
:1006900033462A4621460548009703F0F5FC08B189
:1006A0004FF001084046BDE8F8830000D045002027
:1006B0002DE9F84304460D4616461F464FF0000844
:1006C00033462A4621460548009703F005FE08B147
:1006D0004FF001084046BDE8F8830000D0450020F7
:1006E00000BFFEE710B5024800F018FF10BD000083
:1006F0001447002010B5024800F010FF10BD0000A4
:100700001447002010B5024800F008FF10BD00009B
:100710005847002010B5024800F000FF10BD00004F
:10072000584700202DE9F04104460D4600270026D9
:100730000DB9666B00E0A66B206800F5D87000EB81
:100740000510006800F00400B060B06858B9206877
:1007500000F5D87000EB0510006840F2FF7101EA67
:10076000505030600AE0206800F5D87000EB0510AA
:1007700000686FF0604101EAD0007060206800F509
:10078000D87000EB0510006800F00200F0602068EF
:1007900000F5D87000EB0510406800F00F003061E4
:1007A0003562206800F5D87000EB05104068C0F392
:1007B0000720F061206800F5D87000EB0510806814
:1007C0003075206800F5D87000EB05108068010ACC
:1007D0007175206800F5D87000EB05108068010C79
:1007E000B175206800F5D87000EB05108068000E28
:1007F000F075206800F5D87000EB0510C068307601
:10080000206800F5D87000EB0510C068010A717609
:10081000206800F5D87000EB0510C068010CB176B7
:10082000206800F5D87000EB0510C068000EF07667
:100830004DB920202168C8602068406920F00A0076
:100840002168486108E0202021680861206840692B
:1008500020F050002168486194F83C70222F01D0AC
:10086000322F05D12068406920F40F40216848618B
:10087000CDB994F83C00422804D0622806D07228F2
:100880000CD107E0122084F83C000BE0322084F801
:100890003C0007E0522084F83C0003E0012084F88B
:1008A0003C0000BF19E094F83C00522804D06228B4
:1008B00006D072280CD107E0122084F83C000BE02F
:1008C000222084F83C0007E0422084F83C0003E04A
:1008D000012084F83C0000BF00BF204601F046F92B
:1008E0000020BDE8F08110B504462068406920F082
:1008F00001002168486194F83C00122805D1206865
:10090000406920F40F402168486194F83C00422877
:1009100004D0522806D072280CD107E0222084F897
:100920003C000BE0322084F83C0007E0622084F8B1
:100930003C0003E0012084F83C0000BF00BF2046DB
:1009400001F056FB002010BD10B5024801F066FB17
:1009500010BD00005044002010B5024801F05EFBBD
:1009600010BD0000B044002010B5024801F056FB55
:1009700010BD00009043002010B5024801F04EFB6E
:1009800010BD0000F043002010B5024801F046FB06
:1009900010BD00001045002010B5024801F03EFBDC
:1009A00010BD00003043002010B5024801F036FBB6
:1009B00010BD00005446002010B5024801F02EFB87
:1009C00010BD0000B446002010B5024801F026FB1F
:1009D00010BD000070450020F0B50446059D0026BE
:1009E000A068802803D1400060650120F0BDE84880
:1009F000E063E8486064E06B08B1606C18B94020BF
:100A000060650120F2E700BF94F83400012801D1AD
:100A10000220EBE7012084F8340000BF94F8350091
:100A2000012875D1022084F8350000206065206817
:100A3000006840F4802027683860206803612068DF
:100A40004560A068402804D1206882602068C160A9
:100A500003E0206881602068C260CF4F2068B84200
:100A60005DD9CE4F2068B84201D1202053E0CA4F53
:100A7000483F2068B84201D120204CE0C74F603782
:100A80002068B84201D1202045E0C34F18372068C4
:100A9000B84201D120203EE0C04F18372068B8424C
:100AA00001D1C01437E0BC4F303F2068B84201D1BB
:100AB000C01430E0B94F78372068B84201D1C01473
:100AC00029E0B54F30372068B84201D1C01422E088
:100AD000B24F30372068B84202D14FF400101AE00C
:100AE000AD4F183F2068B84202D14FF4001012E019
:100AF000AA4F90372068B84202D14FF400100AE0A4
:100B0000A54F48372068B84203D14FF4001002E0E7
:100B100035E14FF00060A04F4C3F38601FE19F4F20
:100B2000A8372068B8425CD99C4F2068B84201D1F0
:100B3000202052E0984F483F2068B84201D1202041
:100B40004BE0964F60372068B84201D1202044E046
:100B5000914F18372068B84201D120203DE08F4FD7
:100B600018372068B84201D1C01436E08A4F303FB0
:100B70002068B84201D1C0142FE0884F7837206830
:100B8000B84201D1C01428E0834F30372068B84202
:100B900001D1C01421E0814F30372068B84202D122
:100BA0004FF4001019E07C4F183F2068B84202D182
:100BB0004FF4001011E0794F90372068B84202D10D
:100BC0004FF4001009E0744F48372068B84202D152
:100BD0004FF4001001E04FF000606F4F503F38605D
:100BE000BDE06E4F48372068B8425CD96B4F206833
:100BF000B84201D1202052E0674F483F2068B842F8
:100C000001D120204BE0654F60372068B84201D108
:100C1000202044E0604F18372068B84201D12020DE
:100C20003DE05E4F18372068B84201D1C01436E06D
:100C3000594F303F2068B84201D1C0142FE0574FC0
:100C400078372068B84201D1C01428E0524F3037BD
:100C50002068B84201D1C01421E0504F30372068DD
:100C6000B84202D14FF4001019E04B4F183F2068F2
:100C7000B84202D14FF4001011E0484F903720687D
:100C8000B84202D14FF4001009E0434F48372068C2
:100C9000B84202D14FF4001001E04FF000603F4F26
:100CA000103FF8605BE03D4F2068B84201D1202042
:100CB00052E0394F483F2068B84201D120204BE034
:100CC000364F60372068B84201D1202044E0324FCF
:100CD00018372068B84201D120203DE02F4F183747
:100CE0002068B84201D1C01436E02B4F303F206855
:100CF000B84201D1C0142FE0284F78372068B8429D
:100D000001D1C01428E0244F30372068B84201D107
:100D1000C01421E0214F30372068B84202D14FF48F
:100D2000001019E01C4F183F2068B84202D14FF460
:100D3000001011E0194F90372068B84202D14FF4EB
:100D4000001009E0144F48372068B84202D14FF430
:100D5000001001E04FF00060104F103FB8602068B5
:100D6000006840F01000276838602068006840F094
:100D7000010027683860012084F8350000E0022671
:100D800000BF002084F8340000BF30462EE600008B
:100D9000A3A10008B1A100085864024010600240FD
:100DA0000146087810381823B0FBF3F20848805C3D
:100DB000C865032A05D908686FF30900001D886516
:100DC00003E008686FF309008865886D70470000CC
:100DD000701D0108014600208A6A8B69CBB932B1C7
:100DE000012A0DD0022A03D0032A10D10EE000BF41
:100DF000CB6A03F08073B3F1807F00D1012007E05C
:100E0000CB6AB3F1C07F00D1012001E000E000BF58
:100E100034E08B69B3F5005F1AD132B1012A07D0F3
:100E2000022A03D0032A11D10AE000BF01200EE0FC
:100E3000CB6A03F08073B3F1807F00D1012006E01C
:100E4000CB6AB3F1C07F00D1012000E000BF15E004
:100E500032B1012A05D0022A04D0032A0CD103E0C2
:100E600000BF00BF012008E0CB6A03F08073B3F13C
:100E7000807F00D1012000E000BF00BF704730B587
:100E80000468246824F4802405682C600468636086
:100E90008468402C04D10468A2600468E16003E027
:100EA0000468A1600468E26030BD704710B50FF0BF
:100EB00021FE0949096888420CD10FF037FE074925
:100EC0000968401A0649086006480068096808442D
:100ED0000449086010BD0000C4000020CC000020C0
:100EE000D0000020D400002030B504460D4600227A
:100EF0002946204600F002F830BD0000F0B5034658
:100F0000012500241148407A01281CDC00200F4EE6
:100F1000767A0E4FB8553846467A001D40F826308E
:100F2000001F467A083082553E46707A461C7E7213
:100F3000044604F1300008703A2048702F20887071
:100F40000020C87000252846F0BD000008030020DE
:100F500010B5002201B909E0012901D10A0205E01A
:100F6000022901D10A0201E04FF440720B2800D996
:100F7000001D114B1B6823F440730F4C2360234664
:100F80001B681343236023461B6823F0F803236088
:100F900023461B68F82494FAA4F4B4FA84F400FA03
:100FA00004F444F002042343034C236023461B68EB
:100FB00043F48033236010BD103C02401C4800689D
:100FC00000F40070B0B11A48006820F400701849AD
:100FD000086000BF0846006840F4006008600846EA
:100FE000006820F40060086000BF0846006840F414
:100FF000007008600E48006800F48060B0B10C48D2
:10100000006820F480600A49086000BF0846006854
:1010100040F4805008600846006820F48050086062
:1010200000BF0846006840F4806008607047000018
:10103000003C0240134A126822F44072114B1A60BD
:10104000032906D11A461268DB131A430D4B1A60A6
:101050000EE0012906D10B4A126842F00402094B46
:101060001A6005E0074A126842F40042054B1A6014
:10107000044A12684FF4803343EA00231A43014BB9
:101080001A607047103C0240074A126822F440720E
:10109000054B1A601A4612681A601A46126842F026
:1010A00001021A6001707047103C024010B50949F6
:1010B000096821F44071074C21602146096841F418
:1010C000407121602146096841F001012160026000
:1010D000436010BD103C0240084A126822F440727E
:1010E000064B1A601A46126842F480721A601A4659
:1010F000126842F001021A6001807047103C024001
:10110000084A126822F44072064B1A601A461268A6
:1011100042F400721A601A46126842F001021A6024
:1011200001607047103C02402A48006800F010003F
:1011300040B12948C06940F010002749C86110201B
:10114000244908602348006800F0200040B122488C
:10115000C06940F008002049C86120201D4908608E
:101160001C48006800F0400040B11B48C06940F0D6
:1011700004001949C86140201649086015480068F4
:1011800000F0800040B11448C06940F002001249EC
:10119000C86180200F4908600E48006800F4807024
:1011A00048B10D48C06940F001000B49C8614FF4D7
:1011B0008070084908600748006800F0020040B1EC
:1011C0000548C06940F020000349C8610220014978
:1011D000086070470C3C02401403002070B50446C0
:1011E000002500201449C86101F0D4FA054609E041
:1011F000601C38B124B101F0CDFA401BA04201D9E6
:10120000032070BD0D48006800F480300028EFD145
:101210000A48006800F0010010B101200749086089
:101220000648006800F4F97018B1FFF77DFF01204F
:10123000E7E70020E5E70000140300200C3C024033
:10124000014600205C4A914203D2B1F1006F00D305
:10125000B0E05A4A914204D2574A914201D3012048
:10126000A8E0574A914204D2544A914201D3022045
:10127000A0E0544A914204D2514A914201D3032042
:1012800098E0514A914204D24E4A914201D304203F
:1012900090E04E4A914204D24B4A914201D305203C
:1012A00088E04B4A914204D2484A914201D3062039
:1012B00080E0484A914204D2454A914201D3072036
:1012C00078E0454A914204D2424A914201D3082033
:1012D00070E0424A914204D23F4A914201D3092030
:1012E00068E03F4A914204D23C4A914201D30A202D
:1012F00060E0B1F1016F04D2394A914201D30B2071
:1013000058E0384A914204D2B1F1016F01D30C2068
:1013100050E0354A914204D2324A914201D30D2025
:1013200048E0324A914204D22F4A914201D30E2022
:1013300040E02F4A914204D22C4A914201D30F201F
:1013400038E02C4A914204D2294A914201D310201C
:1013500030E0294A914204D2264A914201D3112019
:1013600028E0264A914204D2234A914201D3122016
:1013700020E0234A914204D2204A914201D3132013
:1013800018E0204A914204D21D4A914201D3142010
:1013900010E01D4A914204D21A4A914201D315200D
:1013A00008E01A4A914204D2174A914201D316200A
:1013B00000E017207047000000400008008000088F
:1013C00000C0000800000108000002080000040836
:1013D000000006080000080800000A0800000C08C9
:1013E00000000E08004010080080100800C010081F
:1013F0000000110800001208000014080000160880
:101400000000180800001A0800001C0800001E0850
:1014100070B504460A460023157D012000FA05F345
:101420003C4901F50071086840F001000860086857
:1014300020F47C5008600868556A40EA052008607E
:10144000C8699843C861A1F50071D069C8B9D1F8DD
:101450000C029843C1F80C02908880B2958940EA4A
:10146000054501F51070566940F83650108880B275
:10147000158940EA054501F51070566900EBC60074
:101480004560D069012819D1D1F80C021843C1F880
:101490000C02908880B2158840EA054501F510706D
:1014A000566940F83650908980B2158940EA054562
:1014B00001F51070566900EBC6004560906928B9C7
:1014C000D1F804029843C1F8040204E0D1F8040200
:1014D0001843C1F80402106920B9D1F814029843E6
:1014E000C1F814021069012804D1D1F8140218437C
:1014F000C1F81402106A012804D1D1F81C02184363
:10150000C1F81C02D1F8000220F00100C1F800026D
:10151000002070BD00640040704700002DE9F041DC
:101520000446002500260027A8462068C068C0F3AE
:10153000001520684069C0F3C0062DB126B148F4FB
:10154000007810202168C86020680069C0F3001589
:1015500020684069C0F380162DB126B148F4806838
:101560001020216808612068406900F0010000280F
:101570003BD0206880687A490840884201D1012028
:1015800000E00020054620688068764908408842CF
:1015900001D1012000E000200646206880687249E1
:1015A0000840884201D1012000E0002007460DB923
:1015B00006B9D7B120688068C0F34005206880680C
:1015C000C0F3402620688068C0F340470DB906B9D3
:1015D0001FB12046FFF787F901E048F40068206852
:1015E000806862490843216888602068C06800F00C
:1015F000030520684069C0F3400625B11EB10021F3
:101600002046FFF78FF82068006900F00305206886
:101610004069C0F3001625B11EB101212046FFF735
:1016200081F8206C40EA080020642068806900F09E
:10163000010520684069C0F3002620684069C0F3B6
:10164000C0372DB126B11FB1206C40F001002064DD
:1016500020688069C0F3400520684069C0F34026D7
:1016600020684069C0F3C0372DB126B11FB1206C8E
:1016700040F00200206420688069C0F38005206883
:101680004069C0F3802620684069C0F3C0372DB19F
:1016900026B11FB1206C40F00400206420688069EE
:1016A00000F0700008B9012000E000200546206825
:1016B0004069C0F3C02620684069C0F3C03795BBBD
:1016C0008EB387B32068806900F07005402D1BD071
:1016D00006DC102D09D0202D0CD0302D24D10EE0A9
:1016E000502D16D0602D1FD118E0206C40F008005E
:1016F00020641AE0206C40F01000206415E0206C9B
:1017000040F02000206410E0206C40F04000206495
:101710000BE0206C40F08000206406E0206C40F478
:101720008070206401E007E000BF00BF206880698E
:1017300020F0700021688861206C78B10420216855
:101740004860012084F83C002068406948F65B71DD
:101750008843216848612046FFF7DEFEBDE8F0813E
:101760000300000400030008000003101905010035
:1017700070B50446002600250CB9012070BD94F810
:101780003C0028B9002084F83D00204600F0CEF847
:10179000022084F83C002068006820F002002168E4
:1017A00008602068006840F001002168086000F0CF
:1017B000F1FF05460EE000F0EDFF401B0A2809D9B5
:1017C000032084F83C0000BF002084F83D0000BFE7
:1017D0000320D3E72068406800F001000028EAD029
:1017E0002068406800F00100002875D0A069012839
:1017F00006D12068006840F080002168086005E09C
:101800002068006820F0800021680860E0690128F5
:1018100006D12068006840F040002168086005E0BB
:101820002068006820F0400021680860206A0128D4
:1018300006D12068006840F020002168086005E0BB
:101840002068006820F0200021680860606A012894
:1018500006D12068006840F010002168086005E0AB
:101860002068006820F0100021680860A06A012844
:1018700006D12068006840F008002168086005E093
:101880002068006820F0080021680860E06A0128EC
:1018900006D12068006840F004002168086005E077
:1018A0002068006820F0040021680860D4E9020183
:1018B000084321690843616908436168491E084378
:1018C0002168C8612068006820F001002168086074
:1018D00000F060FF05460FE01AE000F05BFF401BE0
:1018E0000A2809D9032084F83C0000BF002084F8AE
:1018F0003D0000BF032041E72068406800F0010080
:101900000028EAD12068406800F0010000B90126F3
:10191000012E06D100202064012084F83C00002024
:101920002CE7042084F83C00012027E710B586B09E
:10193000044645492068884237D144480068401C25
:10194000424908600846006801280FD100BF002006
:1019500000903F48006840F000703D49086008462C
:10196000006800F00070009000BF00BF03200190ED
:10197000022002900020039003200490092005908B
:1019800001A9344800F0EAFD00220521132000F0EF
:10199000ABFF132000F09BFF00220521142000F074
:1019A000A3FF142000F093FF4BE02B4920688842EE
:1019B00047D100BF002000902548006840F08060BB
:1019C000234908600846006800F08060009000BF6E
:1019D00000BF1E480068401C1C490860084600689B
:1019E00001280FD100BF002000901948006840F086
:1019F0000070174908600846006800F00070009009
:101A000000BF00BF4FF44050019002200290002020
:101A10000390032004900920059001A90F4800F0CD
:101A20009DFD002206213F2000F05EFF3F2000F0D8
:101A30004EFF00220621402000F056FF402000F01B
:101A400046FF06B010BD000000640040B400002056
:101A500040380240000C0240006800400004024090
:101A6000024689B992F83C0022280BD092F83C003B
:101A7000422807D092F83C00622803D092F83C003C
:101A8000722801D102207047012911D192F83C003F
:101A900032280BD092F83C00522807D092F83C0034
:101AA000622803D092F83C00722801D10220EAE7B4
:101AB00000BF92F83D00012801D10220E3E7012098
:101AC00082F83D0000BFC9B992F83C00122804D04A
:101AD000322806D052280CD107E0422082F83C0080
:101AE0000BE0622082F83C0007E0722082F83C00A4
:101AF00003E0222082F83C0000BF19E092F83C008D
:101B0000122804D0222806D042280CD107E0522007
:101B100082F83C000BE0622082F83C0007E0722073
:101B200082F83C0003E0322082F83C0000BF00BF96
:101B3000002010641068406948F601731843136868
:101B4000586100BF002082F83D0000BF31B9106825
:101B5000406940F00A001368586105E01068406968
:101B600040F050001368586100208CE710B504461F
:101B7000606B006840F20522811A904254D009DC63
:101B8000A0F2012090B1012811D0022810D0032822
:101B900073D10EE001294FD0022955D0B1F5FE7F57
:101BA0006DD0A1F2FD110029F2D19EE000BF00BF6F
:101BB00000BF606B0078401E5649087008460078E8
:101BC000C0EB0010544901EB800081695148007856
:101BD000C0EB0010504A02EB80008069401C4D4A67
:101BE0001278C2EB02124C4B03EB82029061322955
:101BF0000AD848490978C1EB01111A4602EB810065
:101C0000214608F027FF09E042490978C1EB01119C
:101C1000414A02EB8100214608F0D2FA3D49097899
:101C2000C81C08F01FFB62E021463C4808F0C8FAD7
:101C30000A2008F017FB5AE02146394808F0C0FA9C
:101C40000B2008F00FFB52E03648844214D136488E
:101C50008069401C34498861084680690A2804D894
:101C60002146314808F0F6FE03E021462E4808F0F0
:101C7000A7FA0C2008F0F6FA39E037E0FFE7606BCE
:101C8000007D0106606B407D41EA0041606B807D14
:101C900041EA0020616BC97D084300EE100AB8EEEE
:101CA000C00ADFED220A20EE200A214880ED050A55
:101CB000606B007E0106606B407E41EA0041606B14
:101CC000807E41EA0020616BC97E084300EE100A65
:101CD000B8EEC00ADFED150A20EE200A144880EDA8
:101CE000060A022008F0BEFA01E000E000BF00BFD3
:101CF0000C480068406940F002000A4909684861E0
:101D00000C480068406940F002000A4909684861CF
:101D100010BD0000BD000020044900208C480020B8
:101D20005048002014470020C84800206F12833A12
:101D3000745B0020584700202DE9F04104460E4610
:101D4000042500272068806800F08060B0F1806F73
:101D50000DD02068806800F00060B0F1006F06D000
:101D60002068806800F08050B0F1805F7DD100BFB6
:101D700094F83D00012802D10220BDE8F081012045
:101D800084F83D0000BF94F83C00222804D032289B
:101D900006D062280CD107E0422084F83C000BE01A
:101DA000522084F83C0007E0722084F83C0003E0F5
:101DB000122084F83C0000BF00BF2068806800F05B
:101DC0008060B0F1806F01D1002509E02068806853
:101DD00000F00060B0F1006F01D1012500E00225A4
:101DE000206800F5C07000EB0510006800F00101EC
:101DF000206800F5C07000EB05100160206B806862
:101E000098B9206800F5C07000EB05100068216BE0
:101E1000C968226B128841EA42510843216801F5E2
:101E2000C07101EB0511086015E0206800F5C07075
:101E300000EB05100068216B8968226B526841EA4B
:101E4000C201226BD26811430143206800F5C070C3
:101E500000EB05100160206B007C00F00F00216B8F
:101E60000861206800F5C07000E0B6E000EB0510E6
:101E7000406820F00F01206800F5C07000EB0510ED
:101E80004160206800F5C07000EB05104068216BD0
:101E900009690843216801F5C07101EB051148602B
:101EA000206BC07D0106206B807D41EA0041206BE4
:101EB000407D41EA0020216B097D0843216801F53E
:101EC000C07101EB05118860206BC07E0106206B9C
:101ED000807E41EA0041206B407E41EA0021206B78
:101EE000007E0143206800F5C07000EB0510C16062
:101EF000206800F5C07000EB0510006840F001019B
:101F0000206800F5C07000EB0510016000F042FC95
:101F1000074620E0701CF0B126B100F03BFCC01B6E
:101F2000B04218D9032084F83C001DB980202168F4
:101F3000886009E0012D03D1E8032168886003E08F
:101F40004FF400002168886000BF002084F83D0045
:101F500000BF032011E74DB920688068214908407F
:101F6000884201D1012016E0002014E0012D09D1A2
:101F7000206880681C490840884201D101200AE09D
:101F8000002008E02068806818490840884201D194
:101F9000012000E000200028BCD094F83C0042283A
:101FA00004D0522806D072280CD107E0222084F8F1
:101FB0003C000BE0322084F83C0007E0622084F80B
:101FC0003C0003E0012084F83C0000BF00BF00BFDC
:101FD000002084F83D0000BFCFE6042084F83C00D8
:101FE0000120CAE6030000040003000800000310FB
:101FF0007047014691F83500022803D080204865DB
:1020000001207047052081F835000868006820F03D
:1020100001000A6810600020F3E70000F8B50446EC
:10202000002000908D4800684FF41651B0FBF1F786
:10203000A56D2E6894F85C1008208840304098B157
:102040002068006800F0040070B12068006820F08B
:1020500004002168086094F85C1008208840A8609B
:10206000606D40F00100606594F85C107C48884029
:10207000304068B12068406900F0800040B194F8B9
:102080005C1077488840A860606D40F00200606591
:1020900094F85C107248C01C8840304070B12068D1
:1020A000006800F0020048B194F85C106C48C01C55
:1020B0008840A860606D40F00400606594F85C1092
:1020C00010208840304078B32068006800F0080095
:1020D00050B394F85C1010208840A8602068006815
:1020E00000F4802080B12068006800F4002028B946
:1020F000206CC8B12046216C884715E0A06C98B1CF
:102100002046A16C88470FE02068006800F48070CA
:1021100028B92068006820F0080021680860206C59
:1021200010B12046216C884794F85C10202088402C
:102130003040002865D02068006800F010000028BA
:102140005FD094F85C1020208840A86094F8350097
:10215000052828D12068006820F016002168086052
:102160002068406920F0800021684861206C08B92F
:10217000A06C28B12068006820F008002168086081
:1021800094F85C103F208840A86000BF002084F8CD
:10219000340000BF012084F83500206D10B12046C6
:1021A000216D8847F8BD2068006800F4802080B168
:1021B0002068006800F4002028B9606C10B1204647
:1021C000616C88471DE0E06BD8B12046E16B884721
:1021D00017E02068006800F4807068B92068006823
:1021E00020F010002168086000BF002084F834004F
:1021F00000BF012084F83500E06B10B12046E16B90
:102200008847606D38B3606D00F00100F0B10520C3
:1022100084F835002068006820F00100216808601B
:1022200000BF0098401C0090B84200D905E020682B
:10223000006800F001000028F3D100BF00BF0020BB
:1022400084F8340000BF012084F83500E06C10B140
:102250002046E16C884700BFA4E70000040000208E
:10226000010080002DE9F0410446002500F092FABB
:10227000074614B90120BDE8F081606A00B100BFD3
:1022800000BF002084F8340000BF022084F835002D
:102290002068006820F00100216808600AE000F072
:1022A00079FAC01B052805D920206065032084F831
:1022B0003500E0E72068006800F001000028EED15A
:1022C0002068056821480540D4E901010843E16818
:1022D00008432169084361690843A1690843E1692A
:1022E0000843216A08430543606A042803D1D4E9FE
:1022F0000B0108430543206805602068456925F007
:102300000705606A0543606A04280DD1A06A054389
:10231000E06A48B12046FEF75DFD28B140206065C7
:10232000012084F83500A6E7206845612046FEF7C5
:1023300037FD064694F85C103F208840B0600020CE
:102340006065012084F83500002094E73F8010F09C
:102350002DE9F04104460D4616461F464FF0000891
:1023600000BF94F83400012802D10220BDE8F081BA
:10237000012084F8340000BF94F83500012811D101
:10238000022084F83500002060653B46324629462D
:102390002046FEF774FD2068006840F001002168C7
:1023A000086006E000BF002084F8340000BF4FF052
:1023B00002084046DAE731B500F0ECF90546009C2A
:1023C000601C00B1641C00BF00F0E4F9401BA04297
:1023D000FAD338BD2DE9F04104460E460127002509
:1023E00000BF2648007E012802D10220BDE8F0810E
:1023F00001202249087600BF4CF25030FEF7EEFE75
:102400000746002F32D1401E30602068012810D1CD
:10241000207C6168FEF70EFE4CF25030FEF7DEFEC7
:1024200007461748006848F20401884314490860C9
:102430001AE0A56812E0217C2846FEF789FD4CF2DF
:102440005030FEF7CBFE07460D48006820F0FA003A
:102450000B4908600FB1356005E06D1CD4E902102E
:102460000844A842E7D800BFFEF7A8FD00BF00203F
:102470000249087600BF3846B8E700001403002080
:10248000103C02400348006840F0004001490860E9
:1024900000207047103C02402DE9F04106460F46EF
:1024A00014461D464FF0010800BF1F48007E01285A
:1024B00002D10220BDE8F08101201B49087600BF4F
:1024C0004CF25030FEF78AFE8046B8F1000F23D15F
:1024D00026B9E1B23846FEF7D7FD12E0012E04D14D
:1024E000A1B23846FEF7F8FD0BE0022E04D12146DA
:1024F0003846FEF705FE04E022462B463846FEF736
:10250000D5FD4CF25030FEF769FE80460748006862
:1025100020F001000549086000BF0020024908764C
:1025200000BF4046C6E7000014030020103C0240F4
:102530000748006800F0004030B1064804490C39F3
:1025400008600548086001E0012070470020FCE7B2
:10255000103C024023016745AB89EFCDF8B5024638
:102560000B460025002400200021E6E0012606FAA3
:1025700001F51E6806EA0504AC4273D15E68022EBE
:1025800002D05E68122E13D1CF0802F1200656F851
:1025900027004E07F70E0F26BE40B0434F07FF0E31
:1025A0001E69BE403043CF0802F1200646F82700DE
:1025B00010684F000326BE40B0431E7906F00306A4
:1025C0004F00BE40304310605E68012E08D05E6848
:1025D000022E05D05E68112E02D05E68122E13D135
:1025E00090684F000326BE40B0434F00DE68BE40F7
:1025F00030439060506801268E40B0431E79C6F388
:1026000000168E4030435060D0684F000326BE4015
:10261000B0434F009E68BE403043D0605E6806F015
:102620008056B6F1805FA8D100BF00260096454EC7
:10263000366846F48046434F3E603E46366806F4B0
:102640008046009600BF00BF3F4E8F0856F8270017
:102650008E07370F0F26BE40B0433C4EB24202D128
:1026600000262EE068E03A4EB24201D1012628E071
:10267000384EB24201D1022623E0374EB24201D198
:1026800003261EE0354EB24201D1042619E0344E35
:10269000B24201D1052614E0324EB24201D10626E3
:1026A0000FE0314EB24201D107260AE02F4EB2426E
:1026B00001D1082605E02E4EB24201D1092600E0E4
:1026C0000A268F073F0FBE4030431F4E8F0846F843
:1026D0002700284E3068A0435E6806F48036B6F5C1
:1026E000803F00D12043234E3060361D3068A04328
:1026F0005E6806F40036B6F5003F00D120431D4E5B
:10270000361D3060361D3068A0435E6806F48016C2
:10271000B6F5801F00D12043164E08363060361DB6
:102720003068A0435E6806F40016B6F5001F00D1BD
:102730002043104E0C363060491C1029FFF416AFB0
:10274000F8BD000044380240083801400000024053
:102750000004024000080240000C02400010024049
:102760000014024000180240001C024000200240F9
:1027700000240240003C0140024613690B400BB1AB
:10278000012000E0002070470AB1816101E00B04E4
:10279000836170470148006870470000080000200E
:1027A00002480068401C014908607047080000208A
:1027B00010B50D48006840F400700B4908600846E9
:1027C000006840F4806008600846006840F480704B
:1027D0000860032000F0C6F8002000F007F800F0C1
:1027E0004BF8002010BD0000003C024070B588B0DE
:1027F00004460025002600222146362000F074F809
:10280000362000F064F800BF0020019016480068F0
:1028100040F01000144908600846006800F01000FD
:10282000019000BF00BF02A903A800F0A1FB00F0C7
:10283000C7FB45000D48B5FBF0F0461E0C480D499E
:10284000086040F2E7310B48C16046600021016139
:10285000816002F066F820B9064802F07DF808B001
:1028600070BD0120FBE700004038024040420F00ED
:10287000001000409C47002010B5032000F072F8C3
:10288000002211466FF00B0000F02EF800221146D6
:102890006FF00A0000F028F8002211466FF00900DE
:1028A00000F022F800221146501F00F01DF800220F
:1028B0001146101F00F018F800220F21901E00F0A2
:1028C00013F800220F21501E00F00EF810BD00BFBB
:1028D00000F01F02012191404209920002F1E02222
:1028E000C2F8001100BF70472DE9F05F80460D4629
:1028F0001646002703F0D6FC074639462A463346DB
:1029000001F00700C0F1070ABAF1040F02D94FF035
:10291000040A01E0C0F1070AD14600F1040ABAF145
:10292000070F02D24FF0000A01E0A0F1030AD446DB
:102930004FF0010A0AFA09FAAAF1010A0AEA020AA0
:102940000AFA0CFA4FF0010B0BFA0CFBABF1010B7E
:102950000BEA030B4AEA0B042146404603F0AAFCAB
:10296000BDE8F09F00BF00F00702064B19684FF664
:10297000FF031940044B0B4343EA0221014B19604A
:1029800000BF70470CED00E00000FA0538B50024E8
:1029900000BF002000902348006840F0805021498B
:1029A00008600846006800F08050009000BF00BF3B
:1029B0000120010491FAA1F1B1FA81F11A4A42F819
:1029C0002100FFF7E7FE044607E0FFF7E3FE001BE8
:1029D000B0F57A7F01D9032038BD1448406800F46F
:1029E0008030B0F5803FF0D10120410491FAA1F18F
:1029F000B1FA81F10C4A42F82100FFF7CBFE044600
:102A000007E0FFF7C7FE001BB0F57A7F01D903206E
:102A1000E2E70648406800F40030B0F5003FF0D12E
:102A20000020D9E74038024000000E42007000400C
:102A3000F8B5044600250026207800F0010020B9F2
:102A4000207800F00200022866D10020CE49886676
:102A5000FFF7A0FE054606E0FFF79CFE401B02289C
:102A600001D90320F8BDC9480068C0F3C060002840
:102A7000F2D1207800F0010098B147F6C07191FAC8
:102A8000A1F1B1FA81F1606888404FF0E04292FA1A
:102A9000A2F2B2FA82F2A16891400843BB498431A4
:102AA0000860207800F00200022821D1B748843065
:102AB000006800F0E0404FF0E04191FAA1F1B1FA76
:102AC00081F120FA01F660688101207B41EA006013
:102AD00040EA0670AD4984310860AC488C3000682B
:102AE00020F01F00E169491E0843A8498C310860A5
:102AF0000120A5498866FFF74DFE054606E0FFF771
:102B000049FE401B022801D90320ABE79F4800681B
:102B1000C0F3C0600028F2D0207800F00400042840
:102B200004D0207800F0080008287DD100209649C4
:102B30000867FFF72FFE054606E0FFF72BFE401B58
:102B4000022801D903208DE790480068C0F3407047
:102B50000028F2D1207800F00400042834D18B48FA
:102B60008830006800F0E0404FF0E04191FAA1F1B8
:102B7000B1FA81F120FA01F647F6C07191FAA1F19C
:102B8000B1FA81F1206988404FF0706292FAA2F2A6
:102B9000B2FA82F26169914008434FF0E04191FA44
:102BA000A1F1B1FA81F106FA01F1084377498831C0
:102BB0000860081D006820F4F851206A401E41EAB0
:102BC000002072498C310860207800F00800082845
:102BD00034D16E488830006800F070604FF070614A
:102BE00091FAA1F1B1FA81F120FA01F647F6C0712C
:102BF00091FAA1F1B1FA81F1206988404FF070613A
:102C000091FAA1F1B1FA81F106FA01F108434FF00E
:102C1000E04292FAA2F2B2FA82F2A169914008432C
:102C20005A498831086000E01CE0081D006820F463
:102C30004030616A084355498C310860012052498F
:102C40000867FFF7A7FD054606E0FFF7A3FD401B59
:102C5000022801D9032005E74C480068C0F3407002
:102C60000028F2D0207800F0200020287ED100BF7C
:102C70000020009045484030006840F080504349B3
:102C8000403108600846006800F08050009000BFA6
:102C900000BF3F48006840F480703D490860FFF77E
:102CA00079FD054606E0FFF775FD401B022801D9B6
:102CB0000320D7E63648006800F480700028F2D080
:102CC00032487030006800F440764EB3208D00F436
:102CD0004070B04224D02D487030006820F4407617
:102CE00001202C49086000200860284870300660E8
:102CF000006800F0010098B1FFF74CFD054608E0C0
:102D0000FFF748FD401B41F28831884201D903207A
:102D1000A8E61E4870300068C0F340000028EFD0DD
:102D200000BF208D00F44070B0F5407F0CD11748F3
:102D30000830006820F4F810174AA16A11400843CF
:102D400012490831086007E010480830006820F494
:102D5000F8100E49083108600C4870300068218D69
:102D6000C1F30B0108430949703100E001E008603C
:102D700000BF207800F01000102803D194F82C0038
:102D80000649086000206DE6000047420038024016
:102D900000700040400E4742FFFCFF0FE011474229
:102DA00070B504460D4600266D48006800F00F001F
:102DB000A84209D26A490D700846006800F00F0069
:102DC000A84201D0012070BD207800F00200022846
:102DD00007D16448006820F0F000A1680843614909
:102DE0000860207800F00100002877D06068012892
:102DF00007D15C4808380068C0F34040B8B90120EA
:102E0000E1E76068022802D06068032807D15548CE
:102E100008380068C0F3406048B90120D3E7514842
:102E200008380068C0F3400008B90120CBE74D48DE
:102E3000006820F00300616808434A490860FFF712
:102E4000A9FC06466068012810D108E0FFF7A2FC43
:102E5000801B41F28831884201D90320B3E7414801
:102E6000006800F00C000428F0D137E06068022808
:102E700010D108E0FFF78EFC801B41F288318842B8
:102E800001D903209FE73748006800F00C000828AC
:102E9000F0D123E06068032810D108E0FFF77AFC46
:102EA000801B41F28831884201D903208BE72D48ED
:102EB000006800F00C000C28F0D10FE008E0FFF7EC
:102EC00069FC801B41F28831884201D903207AE7EE
:102ED0002448006800F00C000028F0D12048006869
:102EE00000F00F00A84209D91D490D70084600687E
:102EF00000F00F00A84201D0012064E7207800F024
:102F00000400042807D11748006820F4E050E16865
:102F1000084314490860207800F00800082808D108
:102F20001048006820F46040216940EAC1000D4962
:102F3000086000F071F80B49096801F0F001F02217
:102F400092FAA2F2B2FA82F2D140074A515CC8402A
:102F5000064908600020FFF749FC002033E7000025
:102F6000003C024008380240581D010804000020BF
:102F70000F2202600D4A126802F0030242600B4AFF
:102F8000126802F0F0028260084A126802F4E0520D
:102F9000C260064A126802F46042D2080261044A22
:102FA000126802F00F020A60704700000838024001
:102FB000003C024001480068704700000400002007
:102FC00000B5FFF7F7FF0749096801F4E0514FF436
:102FD000E05292FAA2F2B2FA82F2D140024A515C75
:102FE000C84000BD08380240681D010800B5FFF761
:102FF000E1FF0749096801F460414FF4604292FA29
:10300000A2F2B2FA82F2D140024A515CC84000BD3D
:1030100008380240681D010870B500210022002315
:103020000020274C246804F00C0424B1042C04D0A4
:10303000082C41D103E0234840E023483EE0204CE7
:10304000241F246804F03F011D4C241F246804F44D
:10305000800484B11C4CB4FBF1F5194C241F246886
:1030600047F6C076344096FAA6F6B6FA86F6F440ED
:1030700005FB04F20FE0134CB4FBF1F5104C241FD8
:10308000246847F6C076344096FAA6F6B6FA86F675
:10309000F44005FB04F20A4C241F246804F4403475
:1030A0004FF4403595FAA5F5B5FA85F5EC40641C6A
:1030B0006300B2FBF3F001E0024800BF00BF70BD47
:1030C000083802400024F400001BB70038B504465D
:1030D0000025207800F00100002874D0F74800682F
:1030E00000F00C0004280DD0F448006800F00C003B
:1030F000082813D1F148001F006800F48000B0F5E3
:10310000800F0BD1ED4808380068C0F3404000281C
:1031100059D06068002856D1012038BD00BF6068D2
:10312000B0F5803F08D1E5480838006840F48030A9
:10313000E249083908601EE06068B0F5A02F0DD1A3
:10314000DE480838006840F48020DC49083908600F
:103150000846006840F4803008600CE0D748083822
:10316000006820F48030D5490839086008460068B6
:1031700020F48020086000BF606890B1FFF70AFB70
:10318000054606E0FFF706FB401B642801D9032033
:10319000C3E7CA4808380068C0F340400028F1D0AF
:1031A00011E0FFF7F7FA054606E0FFF7F3FA401BD8
:1031B000642801D90320B0E7C04808380068C0F38C
:1031C00040400028F1D1207800F00200022869D1A7
:1031D000BA48006800F00C0058B1B848006800F028
:1031E0000C00082821D1B548001F006800F48000B9
:1031F000D8B9B24808380068C0F3400020B1E06890
:10320000012801D0012088E7AC480838006820F088
:10321000F800F82292FAA2F2B2FA82F22169914001
:103220000843A649083908603CE0E06828B301205B
:10323000A3490860FFF7AEFA054606E0FFF7AAFAD1
:10324000401B022801D9032067E79C480838006822
:10325000C0F340000028F1D098480838006820F0FA
:10326000F800F82292FAA2F2B2FA82F221699140B1
:10327000084392490839086014E00020904908602A
:10328000FFF788FA054606E0FFF784FA401B02289C
:1032900001D9032041E7894808380068C0F340009D
:1032A0000028F1D1207800F0080008282CD16069AE
:1032B000A8B1012083490860FFF76CFA054606E0D3
:1032C000FFF768FA401B022801D9032025E77B4855
:1032D0006C300068C0F340000028F1D014E00020FA
:1032E00078490860FFF756FA054606E0FFF752FAFC
:1032F000401B022801D903200FE770486C3000689A
:10330000C0F340000028F1D1207800F00400042828
:103310007FD100BF0020009068483830006840F03E
:1033200080506649383108600846006800F08050D7
:10333000009000BF00BF6448006840F4807062499C
:103340000860FFF727FA054606E0FFF723FA401B5F
:10335000022801D90320E0E65B48006800F4807091
:103360000028F2D000BFA068012808D15348683077
:10337000006840F001005149683108601DE0A06814
:1033800005280DD14D486830006840F004004B49D5
:10339000683108600846006840F0010008600CE0F1
:1033A00046486830006820F00100444968310860F0
:1033B0000846006820F00400086000BFA068A0B1C3
:1033C000FFF7E8F9054608E0FFF7E4F9401B41F292
:1033D0008831884201D903209FE638486830006868
:1033E000C0F340000028EFD013E0FFF7D3F9054603
:1033F00008E0FFF7CFF9401B41F28831884201D93C
:1034000003208AE62D4868300068C0F34000002899
:10341000EFD1A069F0B32948006800F00C0008283B
:1034200071D0A069022858D1002025490866FFF70D
:10343000B1F9054606E0FFF7ADF9401B022801D9B6
:1034400003206AE61D4808380068C0F34060002881
:10345000F1D1D4E90701084347F6C07292FAA2F20B
:10346000B2FA82F2616A914008430122A16AC2EB7A
:1034700051014FF4403292FAA2F2B2FA82F2914034
:1034800008434FF0706292FAA2F2B2FA82F2E16A55
:10349000914000E039E008430849091F0860012015
:1034A00007490866FFF776F905460FE0FFF772F95E
:1034B000401B02280AD903202FE6000008380240EA
:1034C00000004742800E47420070004010480068EC
:1034D000C0F340600028E9D017E000200D490866DD
:1034E000FFF758F9054606E0FFF754F9401B02289C
:1034F00001D9032011E606480068C0F340600028A7
:10350000F2D102E0FFE7012007E6002005E6000017
:10351000003802400000474202460023106800F1D4
:10352000500303EB81031868704710B5002304684B
:1035300004F1500303EB81031A6010BD2DE9F04143
:1035400004460D461646002700BF207F012802D101
:103550000220BDE8F0810120207700BF02206077C3
:1035600000BFCA202168486253202168486200BF1A
:103570002068806800F48060E0B1FFF70BF907462F
:1035800012E0FFF707F9C01BB0F57A7F0CD900BF36
:10359000FF202168486200BF0320607700BF002041
:1035A000207700BF0320D4E72068C068C0F3800004
:1035B0000028E6D12068806820F480602168886057
:1035C000FFF7E8F8074612E0FFF7E4F8C01BB0F594
:1035D0007A7F0CD900BFFF202168486200BF03201A
:1035E000607700BF0020207700BF0320B1E720688C
:1035F000C068C0F380000028E6D02068806820F012
:1036000007002168886020688068304321688860EE
:10361000206845612068806840F480602168886087
:1036200000BFFF202168486200BF0120607700BF13
:103630000020207700BF00BF8BE7000010B50446D4
:103640000CB9012010BD607F20B9002020772046F2
:1036500000F04EF80220607700BFCA20216848625F
:1036600053202168486200BF204602F07FFE40B12F
:1036700000BFFF202168486200BF0420607701205E
:10368000E0E720688068194908402168886021695E
:1036900060680843616908432168896808432168B4
:1036A00088602168E068086120680169208941EA32
:1036B0000040216808612068C06820F0800021680F
:1036C000C8602068006C20F48020216808642068AD
:1036D000006CA16908432168086400BFFF202168CD
:1036E000486200BF012060770020ABE7BFFF8FFF7B
:1036F000034A0168914202D10121024A11607047D8
:10370000002800403C0E47422DE9F04104460D469A
:103710001646002700BF207F012802D10220BDE805
:10372000F0810120207700BF022060774EB96878D1
:1037300000F01000102804D1687800F0EF000A3083
:10374000687086B9E87802F004FE0304687802F035
:1037500000FE43EA0023A87802F0FBFD034328782B
:1037600043EA403711E0687802F0E8FD0746A878A0
:1037700002F0E4FD0746E8780004697840EA012099
:10378000A9780843297840EA413700BFCA20216858
:10379000486253202168486200BF204602F0E6FDDF
:1037A00060B100BFFF202168486200BF042060773D
:1037B00000BF0020207700BF0120B0E71648384046
:1037C000216848602068C06820F080002168C860D7
:1037D0002068806800F0200080B9204600F0B8F82A
:1037E00060B100BFFF202168486200BF04206077FD
:1037F00000BF0020207700BF012090E700BFFF201E
:103800002168486200BF0120607700BF0020207758
:1038100000BF00BF83E700003FFFFF002DE9F0413C
:1038200004460D461646002700BF207F012802D11E
:103830000220BDE8F0810120207700BF02206077E0
:10384000CEB92068806800F0400000B102E000209E
:10385000E87000BF287802F07CFD0304687802F06D
:1038600078FD43EA0023A87802F073FD0343E8786B
:1038700043EA004716E02068806800F0400020B16D
:10388000287802F05BFD074602E00020E87000BFE8
:1038900028780004697840EA0120A9780843E9788B
:1038A00040EA014700BFCA202168486253202168CE
:1038B000486200BF204602F059FD60B100BFFF2002
:1038C0002168486200BF0420607700BF0020207795
:1038D00000BF0120ADE71D4838402168086020681E
:1038E000806820F4802021688860D5E903010843BE
:1038F000216889680843216888602068C06820F0D2
:1039000080002168C8602068806800F0200080B9CD
:10391000204600F01DF860B100BFFF20216848621A
:1039200000BF0420607700BF0020207700BF012087
:103930007FE700BFFF202168486200BF0120607759
:1039400000BF0020207700BF00BF72E77F7F7F00AD
:1039500070B5044600252068C06820F0A0002168EA
:10396000C860FEF717FF054607E0FEF713FF401B90
:10397000B0F57A7F01D9032070BD2068C06800F0DF
:1039800020000028F1D00020F6E7704770B58AB01B
:1039900004460D460026032084F83400606C03289A
:1039A00020D0B5F5805F04D1A06B40F08050A063BB
:1039B0001CE0B5F5006F07D1204603F04DFB06462D
:1039C000A06B3043A06311E03DB9204603F00FFB2C
:1039D0000646A06B3043A06308E0A06B40F0006097
:1039E000A06303E0A06B40F08050A063A06B40B1E7
:1039F00040F2FF5021688863012084F834000AB047
:103A000070BD60680490A0680590E0680690079516
:103A100060690890A069099007A807C88DE80700A9
:103A2000206804A90EC902F0F3FC012084F83400D8
:103A30000020E4E7704730B503460022586E020EBE
:103A400090090870C2F38300487002F00300887088
:103A5000586EC0F30742CA70B3F86400C0F307227F
:103A60000A7193F864204A71986E020E4FF6FF7047
:103A700000EA0210C880986EC0F30742C88840EA86
:103A80001210C88002F00F0008726820C05AC0F3FC
:103A90000722D0094872C2F380108872C2F3401026
:103AA000C872C2F30010087300204873586C0028D5
:103AB0003ED19007000D08616820C25C086940EAA9
:103AC00082000861D86E020E086940EA921008610F
:103AD000C2F3C200087502F007004875D86EC0F343
:103AE000074250098875C2F38200C8759007400FDD
:103AF00008766C20C05AC0F30722087E40EAD21034
:103B000008760869401C58650C7E586DA41C012578
:103B1000A540684358650C7A0120A0409865D3E918
:103B20001504640A6043D8654FF400741C6630E0E5
:103B3000586C012821D16820C25C9006800A086177
:103B4000D86E020E086940EA02200861D86EC0F300
:103B500007420869104308616C20C05AC0F307226D
:103B60000869441C4FF48060A4FB00045865D865C4
:103B70004FF400749C651C660BE040F2FF501C681B
:103B8000A063986B40F080509863012083F8340064
:103B900030BDC2F3801001F8190F9006400E487036
:103BA0006C20C25C487840EAD210487002F07F0076
:103BB0008870186F020ED009C870C2F341100871E6
:103BC000C2F3820048719007000F8871186FC0F32C
:103BD0000742887940EA92108871C2F34010C87198
:103BE0000020087202F0010048727020C05AC0F331
:103BF0000722D0098872C2F38010C872C2F3401045
:103C00000873C2F300104873C2F38100887302F096
:103C10000300C8737020C25C500808740120487407
:103C200019390020B4E70246506C0860906C486077
:103C3000D06C8860106DC860506D0861906D4861EF
:103C4000D06D8861106EC86100207047F8B50446D9
:103C500004260025002000906946204603F0AEF9B6
:103C6000054615B1A06B2843A0630098C0F3432616
:103C70003046F8BD70B5044600252068406BC0F39F
:103C80000020002863D04FF480702168886320688A
:103C9000C06B40F23A3188432168C863206B00F062
:103CA000080048B3206B00F0020018B9206B00F048
:103CB000200050B1206802F073FD05462DB1A06BC5
:103CC0002843A0632046FFF7B5FE40F2FF5021686D
:103CD0008863012084F83400206B00F0010018B9DB
:103CE000206B00F0020018B1204600F0F3FABCE0AF
:103CF000204600F0F0FAB8E0206B00F080000028C9
:103D0000F5D0206B00F0200050B1206802F048FD93
:103D100005462DB1A06B2843A0632046FFF78AFE1D
:103D2000206B00F001000028E1D1206B00F00200C0
:103D30000028DCD12068C06A20F008002168C86231
:103D4000012084F83400204600F0C5FA8DE0206898
:103D5000406BC0F3803038B14FF4804021688863F5
:103D6000204603F0AEF980E02068406BC0F3C0301D
:103D700038B14FF4004021688863204603F00BF906
:103D800073E02068406B40F23A21084008B10120FE
:103D900000E00020002868D02068406BC0F340009D
:103DA00018B1A06B40F00200A0632068406BC0F324
:103DB000C00018B1A06B40F00800A0632068406B01
:103DC000C0F3401018B1A06B40F02000A063206841
:103DD000406BC0F3001018B1A06B40F01000A0635E
:103DE0002068406BC0F3402018B1A06B40F0080081
:103DF000A06340F2FF70216888632068C06B40F2C6
:103E00003A3188432168C863206B00F0800010B30A
:103E1000206C50B11548216C0865206CFEF7E9F85C
:103E200010B1206C02F006FF1FE0E06B50B11048AB
:103E3000E16B0865E06BFEF7DCF8B0B1E06B02F017
:103E4000D3FE12E00020A063012084F83400204655
:103E5000FFF79BFD09E0206B00F0080028B101206E
:103E600084F834002046FFF7E5FD70BD356C00088E
:103E7000E96B000810B504460CB9012010BD94F898
:103E8000340020B900202077204600F051F80320AC
:103E900084F83400204600F009F80020A063206375
:103EA000012084F834000020E8E7000030B589B034
:103EB000044600250020039004900590069007908A
:103EC0007620089006A807C88DE80700206803A997
:103ED0000EC902F09DFA002014490860206802F023
:103EE000B1FA01201149A039C1F8A0000220FEF763
:103EF00062FA204602F0D8FF054645B1012084F859
:103F00003400A06B2843A063012009B030BD2046D7
:103F100002F04CFF05463DB1012084F83400A06B4F
:103F20002843A0630120F0E70020EEE7A0802542AF
:103F300010B586B004464949206888427ED100BF4A
:103F4000002000904648006840F400604449086042
:103F50000846006800F40060009000BF00BF4FF406
:103F6000F85001900220029000200390032004905A
:103F70000C20059001A93B48FEF7F0FA04200190BF
:103F80000220029000200390032004900C20059052
:103F900001A93548FEF7E2FA3448354908604FF088
:103FA00000604860002132488160C1604FF4806148
:103FB000016189004161890081612021C16109039A
:103FC000016204214162032181624FF40001C16258
:103FD00089100163FEF746F918B1832125A003F08B
:103FE000BBFE00BF2248E063846300BF1F48483027
:103FF000244908604FF000604860402121488160FA
:104000000021C1604FF48061016189004161890034
:1040100081612021C1610903016204214162032100
:1040200081624FF40001C16289100163FEF71AF941
:1040300018B198210FA003F08FFE00E00CE000BF44
:1040400010482064846300BF002205213120FEF760
:104050004BFC3120FEF73BFC06B010BD002C0140AC
:104060004438024000080240000C024058640240FC
:10407000544600202E2E2F5372632F7364696F2EC7
:1040800063000000B44600202DE9F04F87B00446DD
:104090008A4690461E46DDF840900025FEF77AFBE2
:1040A0000090AB465746BAF1000F07D1A06B40F025
:1040B0000060A063012007B0BDE8F08F94F83400E1
:1040C00001287DD10020A06308EB0601E06D81424C
:1040D00005D9A06B40F00070A0630120EBE703203E
:1040E00084F8340000202168C862606C012801D087
:1040F0004FEA48284FF40071206802F001FA0546A3
:1041000055B140F2FF5021688863A06B2843A0633B
:10411000012084F83400CEE74FF0FF3001907002A8
:10412000029090200390022004900020059001202E
:10413000069001A9206802F038F9012E07D9022063
:1041400020634146206802F047FA054606E0012058
:1041500020634146206802F05CFA054655B140F202
:10416000FF5021688863A06B2843A063012084F876
:104170003400A0E72AE02068406B00F4004068B1FA
:104180004FF0000B06E0206802F061F947F82B00C1
:104190000BF1010BBBF1080FF5D32037B9F1000F7C
:1041A00005D0FEF7F7FA0099401A48450ED340F2C1
:1041B000FF5021688863A06B40F00040A06300E0DE
:1041C00082E0012084F83400032074E72068406B0B
:1041D00040F22A3108400028CDD02068406B00F41E
:1041E0008070A0B1012E12D9606C03280FD0206816
:1041F00002F0D6FA054655B140F2FF5021688863B7
:10420000A06B2843A063012084F8340053E72068A2
:10421000406B00F0080058B140F2FF5021688863FD
:10422000A06B40F00800A063012084F8340042E74E
:104230002068406B00F0020058B140F2FF50216846
:104240008863A06B40F00200A063012084F8340072
:1042500031E72068406B00F0200058B140F2FF5079
:1042600021688863A06B40F02000A063012084F8DF
:10427000340020E719E0206802F0E9F838603F1DBB
:10428000B9F1000F05D0FEF785FA0099401A4845AC
:104290000BD340F2FF5021688863A06B40F00040D0
:1042A000A063012084F8340005E72068406B00F427
:1042B00000100028DFD140F2FF5021688863012000
:1042C00084F834000020F6E6A06B40F00050A063B4
:1042D0000120F0E6704770472DE9F04F87B00446A3
:1042E000884617461E46DDF840B00025FEF752FA14
:1042F0000090A946C246B8F1000F07D1A06B40F06C
:104300000060A063012007B0BDE8F08F94F834008E
:1043100001287DD10020A063B919E06D814205D943
:10432000A06B40F00070A0630120ECE7032084F84C
:10433000340000202168C862606C012800D07F0230
:104340004FF40071206802F0DBF8054655B140F2E9
:10435000FF5021688863A06B2843A063012084F884
:104360003400D0E7012E07D9202020633946206889
:1043700002F034FA054606E0102020633946206832
:1043800002F049FA054655B140F2FF5021688863B2
:10439000A06B2843A063012084F83400B3E74FF0FA
:1043A000FF30019070020290902003900020049052
:1043B00005900120069001A9206801F0F6FF2AE08F
:1043C0002068406B00F4804070B14FF0000906E0B7
:1043D0000AEB8901206802F052F809F10109B9F1EC
:1043E000080FF5D30AF1200ABBF1000F05D0FEF744
:1043F000D1F90099401A58450DD340F2FF50216879
:104400008863A06B2843A063012084F8340000E097
:104410005EE0032077E72068406B40F21A310840E5
:104420000028CDD02068406B00F48070A0B1012E30
:1044300012D9606C03280FD0206802F0B1F905464C
:1044400055B140F2FF5021688863A06B2843A063F8
:10445000012084F8340056E72068406B00F0080023
:1044600058B140F2FF5021688863A06B40F008000B
:10447000A063012084F8340045E72068406B00F019
:10448000020058B140F2FF5021688863A06B40F0F1
:104490000200A063012084F8340034E72068406BF8
:1044A00000F0100058B140F2FF5021688863A06B03
:1044B00040F01000A063012084F8340023E740F2AC
:1044C000FF5021688863012084F8340000201AE737
:1044D000A06B40F00050A063012014E710B5044623
:1044E0000CB9012010BD606A00B900BF0021A162B3
:1044F00094F8510028B9002084F85000204600F0BC
:1045000033F8022084F851002068006820F0400051
:1045100021680860D4E901010843E1680843216982
:10452000084361690843218B01F400710843E16984
:104530000843216A0843A16A0843216808600421EE
:10454000A06901EA1040616A084321684860206858
:10455000C06920F400602168C86100206065012006
:1045600084F851000020BDE710B586B0044612491A
:10457000206888421ED100BF002000900F480068CC
:1045800040F480100D4908600846006800F480106F
:10459000009000BF00BF4FF46070019002200290B5
:1045A00000200390032004900520059001A90448F1
:1045B000FDF7D4FF06B010BD005001404438024062
:1045C000001402402DE9FE4F04460D4616461F46D4
:1045D000DDF830804FF0000A0020029081464FF055
:1045E000010B019000BF94F85000012802D1022075
:1045F000BDE8FE8F012084F8500000BFFEF7CAF826
:10460000814694F851A060680290BAF1010F0BD076
:104610000298B0F5827F04D1A06810B9BAF1040FF6
:1046200002D002200190D2E00DB106B117B90120ED
:104630000190CCE094F85100012802D1052084F8C3
:10464000510000206065A663E787A7872563E7869A
:10465000A786206460642068006800F0400040285D
:1046600005D02068006840F0400021680860E068DC
:10467000B0F5006F43D1606810B1E08E012806D11B
:1046800028882168C860AD1CE08E401EE0862FE0BF
:10469000BBF1000F10D0E08E70B12068806800F090
:1046A0000200022808D128882168C860AD1CE08E6D
:1046B000401EE0864FF0000BE08F68B120688068F4
:1046C00000F0010040B12068C0683080B61CE08F67
:1046D000401EE0874FF0010B08F1010040B1FEF7EA
:1046E00059F8A0EB0900404502D3032001906EE089
:1046F000E08E0028CCD1E08F0028C9D142E060686C
:1047000010B1E08E012806D12878216808736D1C4D
:10471000E08E401EE0862FE0BBF1000F10D0E08E4F
:1047200070B12068806800F00200022808D115F8F6
:10473000010B21680873E08E401EE0864FF0000BED
:10474000E08F68B12068806800F0010040B1206807
:10475000C06806F8010BE08F401EE0874FF0010BA8
:1047600008F1010040B1FEF715F8A0EB0900404543
:1047700002D3032001902AE0E08E0028CCD1E08F04
:104780000028C9D14346012202212046CDF80090DD
:1047900002F062FD10B10320019018E04A46414644
:1047A000204602F045FD20B10120019020206065E7
:1047B0000DE0A06850B900BF002000902068C068DC
:1047C000009020688068009000BF00BF00BF0120FB
:1047D00084F8510000BF002084F8500000BF019809
:1047E00006E7042808D14FF0E021096941F00401EF
:1047F0004FF0E022116107E04FF0E021096921F05C
:1048000004014FF0E0221161704770B5044625465F
:10481000681EB0F1807F01D301200FE0681E4FF0C9
:10482000E02148610F214FF0FF3001F043FD0020EF
:104830004FF0E021886107200861002070BD7047BB
:10484000704710B50346002200BF93F838000128D6
:1048500001D1022010BD012083F8380000BF22F0F2
:10486000FF00CC6840EA040222F440708C6840EA01
:10487000040222F480604C6840EA040222F40060E2
:104880000C6840EA040222F480500C6940EA0402F9
:1048900022F400504C6940EA040222F480408C6902
:1048A00040EA040222F400408C6940EA04021868DD
:1048B000426400BF002083F8380000BF00BFC9E792
:1048C000024600BF92F83800012801D1022070474B
:1048D000012082F8380000BF022082F839001068F9
:1048E000406820F0700013685860106840680B68DA
:1048F0001843136858601068806820F080001368BF
:104900009860106880684B681843136898600120AD
:1049100082F8390000BF002082F8380000BF00BFD5
:10492000D5E710B504460CB9012010BD94F8390044
:1049300028B9002084F83800204600F00CF8022046
:1049400084F83900211D206802F0B4FD012084F8AC
:1049500039000020E9E7704701460868C06840F068
:1049600001000A68D0600868006840F001000A6829
:10497000106000207047704710B504462068006939
:10498000C0F34000D8B12068C068C0F34000B0B1A7
:104990006FF002002168086101202076206880699C
:1049A00000F0030018B12046FFF7E5FF05E02046C0
:1049B00000F068F9204600F0ABFA0020207620686D
:1049C0000069C0F38000D8B12068C068C0F38000DF
:1049D000B0B16FF0040021680861022020762068E1
:1049E000806900F4407018B12046FFF7C4FF05E06D
:1049F000204600F047F9204600F08AFA0020207691
:104A000020680069C0F3C000D8B12068C068C0F356
:104A1000C000B0B16FF00800216808610420207662
:104A20002068C06900F0030018B12046FFF7A3FF1B
:104A300005E0204600F026F9204600F069FA002043
:104A4000207620680069C0F30010D8B12068C068E3
:104A5000C0F30010B0B16FF01000216808610820A9
:104A600020762068C06900F4407018B12046FFF736
:104A700082FF05E0204600F005F9204600F048FAE4
:104A8000002020762068006900F0010058B12068FD
:104A9000C06800F0010030B16FF0010021680861CA
:104AA000204600F05DFA20680069C0F3C01058B1DC
:104AB0002068C068C0F3C01030B16FF0800021687A
:104AC00008612046FFF7BBFE20680069C0F3801034
:104AD00058B12068C068C0F3801030B16FF040005A
:104AE00021680861204600F047FA20680069C0F399
:104AF000401058B12068C068C0F3401030B16FF06A
:104B00002000216808612046FFF79AFE10BD0000D2
:104B100010B586B004464F49206888421CD14FF436
:104B20004070019002200290002003900490012028
:104B3000059001A94848FDF711FD4FF4C0400190D0
:104B4000022002900020039004900120059001A90A
:104B50004248FDF703FD7AE02068B0F1804F0DD1A7
:104B60000F20019002200290002003900490012069
:104B7000059001A93848FDF7F1FC68E03849206844
:104B800088420DD130200190022002900020039035
:104B900004900220059001A93248FDF7DFFC56E0A1
:104BA0003149206888420ED14FF4704001900220B4
:104BB00002900020039004900220059001A92B4848
:104BC000FDF7CCFC43E02A49206888421BD1012034
:104BD0000190022002900020039004900220059092
:104BE00001A92448FDF7BAFC4FF4E05001900220DF
:104BF00002900020039004900220059001A91E4815
:104C0000FDF7ACFC23E01D49206888420DD1E4206B
:104C10000190022002900020039004900320059050
:104C200001A91448FDF79AFC11E015492068884253
:104C30000DD14FF4107001900220029000200390DB
:104C400004900920059001A90B48FDF787FC06B0E8
:104C500010BD0000000001400000024000100240B2
:104C6000000400400004024000080040000C024024
:104C7000000C004000200240001C024000040140E3
:104C800000180040704770B504460D46164600BF38
:104C900094F83800012801D1022070BD012084F869
:104CA000380000BF022084F8390036B1042E1BD032
:104CB000082E31D00C2E5ED145E02946206802F046
:104CC00079FC2068806940F00800216888612068CC
:104CD000806920F004002168886120688069296962
:104CE00008432168886147E02946206802F09AFC61
:104CF0002068806940F400602168886120688069CC
:104D000020F480602168886120688069296940EA10
:104D10000120216888612FE02946206802F0BEFC4E
:104D20002068C06940F008002168C8612068C06937
:104D300020F004002168C8612068C069296908431F
:104D40002168C86118E02946206802F0E3FC206869
:104D5000C06940F400602168C8612068C06920F41F
:104D600080602168C8612068C069296940EA012023
:104D70002168C86100E000BF00BF012084F839004D
:104D800000BF002084F8380000BF00BF85E710B5E1
:104D900004460CB9012010BD94F8390028B9002050
:104DA00084F83800204600F00DF8022084F839001D
:104DB000211D206802F07EFB012084F839000020CC
:104DC000E9E7000008B54B4A016891420FD100BFE6
:104DD000002100914849096841F00101464A1160EB
:104DE0001146096801F00101009100BF81E00168EE
:104DF000B1F1804F11D100BF002100913E49091F40
:104E0000096841F001013C4A121F1160114609680E
:104E100001F00101009100BF6BE0384A0168914246
:104E200011D100BF002100913349091F096841F0E9
:104E30000201314A121F11601146096801F0020196
:104E4000009100BF55E02E4A0168914211D100BF88
:104E5000002100912849091F096841F00401264AF0
:104E6000121F11601146096801F00401009100BF92
:104E70003FE0244A0168914211D100BF0021009116
:104E80001D49091F096841F008011B4A121F1160E2
:104E90001146096801F00801009100BF29E01A4A93
:104EA000016891420FD100BF0021009112490968A9
:104EB00041F00201104A11601146096801F0020137
:104EC000009100BF15E0114A0168914211D100BF65
:104ED000002100910849091F096841F04001064A74
:104EE000121F11601146096801F04001009100BFD6
:104EF00000BF08BD000001404438024000040040EB
:104F000000080040000C0040000401400018004070
:104F10007047000030B504460D460122294620683E
:104F200002F03AFB0C492068884203D00B49206804
:104F3000884201D1012000E0002028B12068406CA7
:104F400040F40040216848642068006840F0010097
:104F500021680860002030BD0000014000040140CD
:104F600010B5044603492068884201D1FDF718FCBA
:104F700010BD000000100040704770472DE9F04759
:104F80000446206805682068C668206847694FF0B5
:104F90000008C14605F00F08B8F1000F0AD105F06E
:104FA000200038B106F0200020B1204602F03FFC7E
:104FB000BDE8F087B8F1000F6DD007F0010018B917
:104FC00006F49070002866D005F0010030B106F4B8
:104FD000807018B1E06B40F00100E06305F0040060
:104FE00030B107F0010018B1E06B40F00200E0635F
:104FF00005F0020030B107F0010018B1E06B40F09D
:105000000400E06305F0080030B107F0010018B1BA
:10501000E06B40F00800E063E06B68B305F020004F
:1050200028B106F0200010B1204602F000FC2068F4
:105030004069C0F38019E06B00F0080010B9B9F1C5
:10504000000F22D0204602F09FFB2068406900F04C
:105050004000B0B12068406920F0400021684861FC
:10506000606B50B11748616B0865606BFCF7C1FF5E
:1050700010B1606B016D88470CE02046FFF77DFFA3
:1050800008E02046FFF779FF04E02046FFF775FFB0
:105090000020E0638CE705F0800030B106F080006E
:1050A00018B1204602F0C4FD82E705F0400030B19F
:1050B00006F0400018B1204602F076FB78E700BF0A
:1050C00076E700007577000810B504460CB901209A
:1050D00010BDA06900B100E000BF94F8390028B904
:1050E000002084F83800204600F028F8242084F8B6
:1050F00039002068C06820F400502168C86020464C
:1051000002F0E2FB2068006920F490402168086109
:105110002068406920F02A00216848612068C06842
:1051200040F400502168C8600020E063202084F82B
:10513000390084F83A000020CAE7000010B586B0B4
:105140000446CD492068884248D100BF0020009025
:10515000CA48006840F01000C84908600846006866
:1051600000F01000009000BF00BFC020019002209E
:10517000029001200390032004900720059001A9CC
:10518000BF48FDF7EBF9BF48BF4908604FF000602A
:1051900048600021BC488160C1604FF480610161BA
:1051A0000021416181614FF48071C1610021016280
:1051B0004162FDF757F818B1BA21B4A002F0CCFD56
:1051C00000BFB1486063846300BF00220521252031
:1051D000FDF78AFB2520FDF77AFB4AE1AF492068FD
:1051E000884268D100BF00200090A448001F0068DA
:1051F00040F40030A149091F08600846006800F427
:105200000030009000BF00BF60200190022002909B
:1052100001200390032004900720059001A9A048D5
:10522000FDF79CF99F48A04908604FF00060486076
:1052300000219D488160C1604FF4806101610021BF
:1052400041618161C16101624162FDF70BF818B1F2
:10525000E7218EA002F080FD00BF93486063846365
:1052600000BF90481830914908604FF000604860D6
:1052700040218E4881600021C1604FF4806101614E
:10528000002141618161C16101624162FCF7EAFF75
:1052900018B1F9217DA002F05FFD00BF83482063B3
:1052A000846300BF002205212620FDF71DFB262078
:1052B000FDF70DFBDDE07E49206888426CD100BF20
:1052C000002000906D48001F006840F480206B496A
:1052D000091F08600846006800F48020009000BFA5
:1052E00000BF4FF440700190022002900120039013
:1052F000032004900720059001A96948FDF72EF9C5
:10530000684860386B4908604FF0006048600021D1
:1053100068488160C1604FF4806101610021416192
:105320008161C16101624162FCF79CFF20B14FF4D1
:10533000937156A002F010FD00BF5E486063846365
:1053400000BF584830385C4908604FF00060486042
:105350004021594881600021C1604FF480610161A2
:10536000002141618161C16101624162FCF77AFF04
:1053700020B14FF49C7145A002F0EEFC00BF4E48F6
:105380002063846300BF002205212720FDF7ACFACB
:105390002720FDF79CFA6CE048492068884268D1D4
:1053A00000BF002000903548006840F020003349DD
:1053B00008600846006800F02000009000BF00BFB1
:1053C0004FF48440019002200290012003900320BA
:1053D00004900820059001A93948FDF7BFF8294835
:1053E00018383849086080054860002135488160D8
:1053F000C1604FF480610161002141618161C1613F
:1054000001624162FCF72EFF20B140F265111FA03E
:1054100002F0A2FC00BF2B486063846300BF194800
:105420007830294908604FF02060486040212648C4
:1054300081600021C1604FF4806101610021416100
:105440008161C16101624162FCF70CFF20B140F251
:1054500077110EA002F080FC00BF1B48206384631C
:1054600000BF002205214720FDF73EFA4720FDF747
:105470002EFA06B010BD0000001001404438024072
:105480000004024040640240304300202E2E2F537F
:1054900072632F75736172742E63000000440040C4
:1054A000000C02408860024090430020F04300203E
:1054B0000048004050440020B04400200014014047
:1054C00000180240104500207045002010B5044629
:1054D00020460AF035F810BD2DE9F84304460D4684
:1054E00016461F464FF0000994F8390020285CD179
:1054F00005B116B90120BDE8F88300BF94F8380063
:10550000012801D10220F6E7012084F8380000BF0D
:105510000020E063212084F83900FDF73BF9814643
:10552000A684E6842BE0E08C401EE084A068B0F501
:10553000805F16D14B46002280212046009702F062
:10554000ABFB08B10320D6E7A846B8F80000C0F3CB
:10555000080021684860206908B9AD1C0FE06D1C87
:105560000DE04B46002280212046009702F094FB7C
:1055700008B10320BFE715F8010B21684860E08CF3
:105580000028D0D14B46002240212046009702F04F
:1055900083FB08B10320AEE7202084F8390000BF68
:1055A000002084F8380000BFA5E70220A3E710B56B
:1055B000044620460AF01EF810BD00BFFEE70000BA
:1055C00010B50F480F4908600520486000210D48BC
:1055D0008160C1604FF400310161490141610021E6
:1055E00081610121C1610021016241628162C16268
:1055F000FCF7BEF818B1502103A002F0ADFB10BDBE
:1056000000640040144700202E2E2F5372632F6336
:10561000616E2E630000000010B51048104908604C
:105620000520486000210E4881604FF04071C16044
:105630004FF4003101614901416100218161012183
:10564000C1610021016241628162C162FCF790F890
:1056500018B1662103A002F07FFB10BD0068004076
:10566000584700202E2E2F5372632F63616E2E63D6
:105670000000000008B500BF00200090324800681C
:1056800040F48000304908600846006800F480005B
:10569000009000BF00BF00BF0020009008460068D7
:1056A00040F4001008600846006800F40010009004
:1056B00000BF00BF002205210C20FDF715F90C20CA
:1056C000FDF705F9002205210E20FDF70DF90E204A
:1056D000FDF7FDF8002205211020FDF705F9102047
:1056E000FDF7F5F8002205211120FDF7FDF8112046
:1056F000FDF7EDF8002205213920FDF7F5F83920F6
:10570000FDF7E5F8002205213A20FDF7EDF83A20F3
:10571000FDF7DDF8002206213B20FDF7E5F83B20F0
:10572000FDF7D5F8002206214520FDF7DDF84520DC
:10573000FDF7CDF8002205214620FDF7D5F84620DB
:10574000FDF7C5F808BD00003038024010B5034928
:105750000348FBF7C9FB0349087010BDB9000020DE
:10576000441D0108B800002000B5AFB00AF08CF865
:10577000424800682E90002201212EA808F0F6F978
:105780003F4908603D48001D00682D90002201211E
:105790002DA808F0EBF93B4908601422374908317D
:1057A00028A8FAF736FE002128A808F0C6F93649DD
:1057B0000860142231491C3123A8FAF72AFE00217F
:1057C00023A808F0BAF93149086014222B49303176
:1057D0001EA8FAF71EFE00211EA808F0AEF92C49FB
:1057E000086014222549443119A8FAF712FE002155
:1057F00019A808F0A2F92749086014221F49583156
:1058000014A8FAF706FE002114A808F096F9224918
:105810000860142219496C310FA8FAF7FAFD00212B
:105820000FA808F08AF91D49086014221349803135
:105830000AA8FAF7EEFD00210AA808F07EF9184937
:10584000086014220D49943105A8FAF7E2FD002101
:1058500005A808F072F91349086014220749A83115
:105860006846FAF7D6FD0021684608F066F90E4949
:1058700008600AF033F82FB000BD0000781D010861
:10588000A8000020AC000020800000208400002040
:10589000880000208C000020900000209400002050
:1058A00098000020A0000020A400002000B587B0D0
:1058B00000BF002001907248006840F0100070495D
:1058C00008600846006800F01000019000BF00BFAB
:1058D00000BF002001900846006840F00200086008
:1058E0000846006800F00200019000BF00BF00BF42
:1058F000002001900846006840F04000086008461B
:10590000006800F04000019000BF00BF00BF002011
:1059100001900846006840F00400086008460068EE
:1059200000F00400019000BF00BF00BF0020019004
:105930000846006840F0010008600846006800F072
:105940000100019000BF00BF00BF00200190084689
:10595000006840F0080008600846006800F0080091
:10596000019000BF00BF00BF002001900846006802
:1059700040F4807008600846006800F48070019070
:1059800000BF00BF00BF002001900846006840F043
:10599000800008600846006800F08000019000BFA9
:1059A00000BF00BF002001900846006840F02000C2
:1059B00008600846006800F02000019000BF00BFAA
:1059C000002284212F48FCF7DFFE00224FF4005113
:1059D0002D48FCF7D9FE002244F240012B48FCF789
:1059E000D3FE8420029001200390002004900590B3
:1059F00002A92448FCF7B2FD02200290244803903B
:105A00000020049002A91F48FCF7A8FD4FF40050A5
:105A100002900120039000200490059002A91A48EA
:105A2000FCF79CFD4FF400700290002003900120D1
:105A3000049002A91748FCF791FD44F2400002903F
:105A40000120039000200490059002A90F48FCF764
:105A500085FD4FF48060029000200390049002A91D
:105A60000D48FCF77BFD4FF40040029000200390AE
:105A7000049002A90348FCF771FD07B000BD0000C7
:105A8000303802400010024000180240001402406A
:105A90000000111000200240000C024000B587B049
:105AA0002C482D490860002048607C212A488160EC
:105AB000FF21C1600021016141618161FDF7BEFDEF
:105AC00018B14C2125A002F047F900212248FDF72A
:105AD00023FD43F2F221884230D00A208DF80800DD
